:020000040800F2
:10000000A8090020D500000815020008C501000855
:1000100000000000000000000000000000000000E0
:1000200000000000000000000000000019020008AD
:100030000000000000000000170200081B0200087A
:10004000E7000008E7000008E7000008E7000008F4
:10005000E7000008E7000008E7000008E7000008E4
:1000600000000000E7000008E700000800000000B2
:10007000E7000008E7000008E700000800000000B3
:10008000E7000008E700000800000000E7000008A3
:1000900000000000E7000008E7000008E700000893
:1000A00000000000E700000800000000E700000872
:1000B000E700000800000000000000000000000051
:1000C0000348854600F034F8004800479D010008C9
:1000D000A80900200448804704480047FEE7FEE7DF
:1000E000FEE7FEE7FEE7FEE71D020008C10000088C
:1000F00070B50446002903D000202022012310E01F
:10010000002801D00020C043C046C0460DE025466F
:10011000D5408D4205D30D469540641B1D46954044
:1001200040191546521E002DF1DC214670BD00001D
:100130001CB5094800900948019005460126009C1D
:1001400005E0E36807CC33430C3C98471034AC42DD
:10015000F7D3FFF7B9FF00000803000828030008E1
:1001600030B58C180278401C13071B0F01D103789F
:10017000401C120906D10278401C03E005780D707E
:10018000401C491C5B1EF9D101E00B70491C521E3A
:10019000FBD1A142E6D3002030BD000080B5002095
:1001A00007490122D306C3580B50001DC028F8D1BF
:1001B00050072549086000F049F8002080BDC0467E
:1001C00000000020FEE7000080B57D21C900FFF798
:1001D0008FFF401E0E49486000208860052008609F
:1001E00080BDC046014908607047C046C00000207D
:1001F00081B007490A680092401C01D30020C04327
:10020000009A0A68D203D2171018FAD101B07047C9
:1002100010E000E07047704770477047074801687A
:10022000074A0A40074909681143012253030B4357
:100230000360D006044908607047C04604100240BD
:100240000000FFFF040FFF1F08ED00E082B0012156
:100250000A021C4E304608380368134303608D02BF
:1002600001682942FCD00F200002316881433160CF
:10027000316807208143316031688906490FFBD11D
:1002800000033168814331600F4C2046FFF79CFF2B
:100290002046FFF7A7FFF06A02210843F062F06AE8
:1002A00008400190019803208002084C2168814396
:1002B000294321606420FFF79BFF606920214140B2
:1002C0006161F7E70810024000127A000004005054
:1002D00002E008C8121F08C1002AFAD1704770470F
:1002E000002001E001C1121F002AFBD1704700006D
:1002F0000100010140000000000100200005002075
:1003000080050020030000004003000800000020DA
:10031000A80500006001000850030008A80500209F
:1003200000040000E00200080000000000000000DF
:1003300000000000000000000000000000000000BD
:1003400001C203FF127A01FF01FF01FF01EE00006D
:04000005080000C12E
:00000001FF
